{
  "address": "0xe7f1725E7734CE288F8367e1Bb143E90bb3F0512",
  "abi": [
    {
      "inputs": [
        {
          "internalType": "address",
          "name": "priceFeedAddress",
          "type": "address"
        }
      ],
      "stateMutability": "nonpayable",
      "type": "constructor"
    },
    {
      "inputs": [],
      "name": "FundMe__CallFailed",
      "type": "error"
    },
    {
      "inputs": [],
      "name": "FundMe__NotOwner",
      "type": "error"
    },
    {
      "stateMutability": "payable",
      "type": "fallback"
    },
    {
      "inputs": [],
      "name": "MINIMUM_USD",
      "outputs": [
        {
          "internalType": "uint256",
          "name": "",
          "type": "uint256"
        }
      ],
      "stateMutability": "view",
      "type": "function"
    },
    {
      "inputs": [],
      "name": "cheaperWithdraw",
      "outputs": [],
      "stateMutability": "payable",
      "type": "function"
    },
    {
      "inputs": [],
      "name": "fund",
      "outputs": [],
      "stateMutability": "payable",
      "type": "function"
    },
    {
      "inputs": [
        {
          "internalType": "address",
          "name": "funder",
          "type": "address"
        }
      ],
      "name": "getAddressToAmountfunded",
      "outputs": [
        {
          "internalType": "uint256",
          "name": "",
          "type": "uint256"
        }
      ],
      "stateMutability": "view",
      "type": "function"
    },
    {
      "inputs": [],
      "name": "getAllFunders",
      "outputs": [
        {
          "internalType": "address[]",
          "name": "",
          "type": "address[]"
        }
      ],
      "stateMutability": "view",
      "type": "function"
    },
    {
      "inputs": [
        {
          "internalType": "uint256",
          "name": "index",
          "type": "uint256"
        }
      ],
      "name": "getFunder",
      "outputs": [
        {
          "internalType": "address",
          "name": "",
          "type": "address"
        }
      ],
      "stateMutability": "view",
      "type": "function"
    },
    {
      "inputs": [],
      "name": "getOwner",
      "outputs": [
        {
          "internalType": "address",
          "name": "",
          "type": "address"
        }
      ],
      "stateMutability": "view",
      "type": "function"
    },
    {
      "inputs": [],
      "name": "getPriceFeed",
      "outputs": [
        {
          "internalType": "contract AggregatorV3Interface",
          "name": "",
          "type": "address"
        }
      ],
      "stateMutability": "view",
      "type": "function"
    },
    {
      "inputs": [
        {
          "internalType": "address",
          "name": "",
          "type": "address"
        }
      ],
      "name": "s_addressToAmountFunded",
      "outputs": [
        {
          "internalType": "uint256",
          "name": "",
          "type": "uint256"
        }
      ],
      "stateMutability": "view",
      "type": "function"
    },
    {
      "inputs": [
        {
          "internalType": "uint256",
          "name": "",
          "type": "uint256"
        }
      ],
      "name": "s_funders",
      "outputs": [
        {
          "internalType": "address",
          "name": "",
          "type": "address"
        }
      ],
      "stateMutability": "view",
      "type": "function"
    },
    {
      "inputs": [],
      "name": "s_priceFeed",
      "outputs": [
        {
          "internalType": "contract AggregatorV3Interface",
          "name": "",
          "type": "address"
        }
      ],
      "stateMutability": "view",
      "type": "function"
    },
    {
      "inputs": [],
      "name": "withdraw",
      "outputs": [],
      "stateMutability": "nonpayable",
      "type": "function"
    },
    {
      "stateMutability": "payable",
      "type": "receive"
    }
  ],
  "transactionHash": "0x9fe924f92afc544366af02cde840f79910b01f44e17708cfab6beff5345ce0bb",
  "args": [
    "0x5FbDB2315678afecb367f032d93F642f64180aa3"
  ],
  "numDeployments": 1,
  "solcInputHash": "a77a44e0e5f01724d2aafecba4373e09",
  "bytecode": "0x60a06040523480156200001157600080fd5b50604051620014533803806200145383398181016040528101906200003791906200011d565b3373ffffffffffffffffffffffffffffffffffffffff1660808173ffffffffffffffffffffffffffffffffffffffff168152505080600260006101000a81548173ffffffffffffffffffffffffffffffffffffffff021916908373ffffffffffffffffffffffffffffffffffffffff160217905550506200014f565b600080fd5b600073ffffffffffffffffffffffffffffffffffffffff82169050919050565b6000620000e582620000b8565b9050919050565b620000f781620000d8565b81146200010357600080fd5b50565b6000815190506200011781620000ec565b92915050565b600060208284031215620001365762000135620000b3565b5b6000620001468482850162000106565b91505092915050565b6080516112d3620001806000396000818161046a0152818161077d015281816107cd01526109c301526112d36000f3fe6080604052600436106100ab5760003560e01c80636fbbb55d116100645780636fbbb55d146101e8578063893d20e8146102135780639e87a5cd1461023e578063b60d428814610269578063be2693f014610273578063d7b4750c1461027d576100ba565b80630ec3b027146100c45780631bf6132d146100ef5780632164880d1461012c5780633ccfd60b1461016957806354861af7146101805780636b69a592146101bd576100ba565b366100ba576100b86102ba565b005b6100c26102ba565b005b3480156100d057600080fd5b506100d96103e2565b6040516100e69190610cc1565b60405180910390f35b3480156100fb57600080fd5b5061011660048036038101906101119190610d1f565b610408565b6040516101239190610d65565b60405180910390f35b34801561013857600080fd5b50610153600480360381019061014e9190610d1f565b610420565b6040516101609190610d65565b60405180910390f35b34801561017557600080fd5b5061017e610468565b005b34801561018c57600080fd5b506101a760048036038101906101a29190610dac565b61069f565b6040516101b49190610de8565b60405180910390f35b3480156101c957600080fd5b506101d26106de565b6040516101df9190610d65565b60405180910390f35b3480156101f457600080fd5b506101fd6106eb565b60405161020a9190610ec1565b60405180910390f35b34801561021f57600080fd5b50610228610779565b6040516102359190610de8565b60405180910390f35b34801561024a57600080fd5b506102536107a1565b6040516102609190610cc1565b60405180910390f35b6102716102ba565b005b61027b6107cb565b005b34801561028957600080fd5b506102a4600480360381019061029f9190610dac565b610a86565b6040516102b19190610de8565b60405180910390f35b6802b5e3af16b18800006102f9600260009054906101000a900473ffffffffffffffffffffffffffffffffffffffff1634610ace90919063ffffffff16565b101561033a576040517f08c379a000000000000000000000000000000000000000000000000000000000815260040161033190610f40565b60405180910390fd5b346000803373ffffffffffffffffffffffffffffffffffffffff1673ffffffffffffffffffffffffffffffffffffffff168152602001908152602001600020819055506001339080600181540180825580915050600190039060005260206000200160009091909190916101000a81548173ffffffffffffffffffffffffffffffffffffffff021916908373ffffffffffffffffffffffffffffffffffffffff160217905550565b600260009054906101000a900473ffffffffffffffffffffffffffffffffffffffff1681565b60006020528060005260406000206000915090505481565b60008060008373ffffffffffffffffffffffffffffffffffffffff1673ffffffffffffffffffffffffffffffffffffffff168152602001908152602001600020549050919050565b7f000000000000000000000000000000000000000000000000000000000000000073ffffffffffffffffffffffffffffffffffffffff163373ffffffffffffffffffffffffffffffffffffffff16146104ed576040517f579610db00000000000000000000000000000000000000000000000000000000815260040160405180910390fd5b60005b6001805490508110156105985760006001828154811061051357610512610f60565b5b9060005260206000200160009054906101000a900473ffffffffffffffffffffffffffffffffffffffff16905060008060008373ffffffffffffffffffffffffffffffffffffffff1673ffffffffffffffffffffffffffffffffffffffff1681526020019081526020016000208190555050808061059090610fbe565b9150506104f0565b50600067ffffffffffffffff8111156105b4576105b3611006565b5b6040519080825280602002602001820160405280156105e25781602001602082028036833780820191505090505b50600190805190602001906105f8929190610b9b565b5060003373ffffffffffffffffffffffffffffffffffffffff164760405161061f90611066565b60006040518083038185875af1925050503d806000811461065c576040519150601f19603f3d011682016040523d82523d6000602084013e610661565b606091505b505090508061069c576040517fa6139a6400000000000000000000000000000000000000000000000000000000815260040160405180910390fd5b50565b600181815481106106af57600080fd5b906000526020600020016000915054906101000a900473ffffffffffffffffffffffffffffffffffffffff1681565b6802b5e3af16b188000081565b6060600180548060200260200160405190810160405280929190818152602001828054801561076f57602002820191906000526020600020905b8160009054906101000a900473ffffffffffffffffffffffffffffffffffffffff1673ffffffffffffffffffffffffffffffffffffffff1681526020019060010190808311610725575b5050505050905090565b60007f0000000000000000000000000000000000000000000000000000000000000000905090565b6000600260009054906101000a900473ffffffffffffffffffffffffffffffffffffffff16905090565b7f000000000000000000000000000000000000000000000000000000000000000073ffffffffffffffffffffffffffffffffffffffff163373ffffffffffffffffffffffffffffffffffffffff1614610850576040517f579610db00000000000000000000000000000000000000000000000000000000815260040160405180910390fd5b600060018054806020026020016040519081016040528092919081815260200182805480156108d457602002820191906000526020600020905b8160009054906101000a900473ffffffffffffffffffffffffffffffffffffffff1673ffffffffffffffffffffffffffffffffffffffff168152602001906001019080831161088a575b5050505050905060005b815181101561095e5760008282815181106108fc576108fb610f60565b5b6020026020010151905060008060008373ffffffffffffffffffffffffffffffffffffffff1673ffffffffffffffffffffffffffffffffffffffff1681526020019081526020016000208190555050808061095690610fbe565b9150506108de565b50600067ffffffffffffffff81111561097a57610979611006565b5b6040519080825280602002602001820160405280156109a85781602001602082028036833780820191505090505b50600190805190602001906109be929190610b9b565b5060007f000000000000000000000000000000000000000000000000000000000000000073ffffffffffffffffffffffffffffffffffffffff1647604051610a0590611066565b60006040518083038185875af1925050503d8060008114610a42576040519150601f19603f3d011682016040523d82523d6000602084013e610a47565b606091505b5050905080610a82576040517fa6139a6400000000000000000000000000000000000000000000000000000000815260040160405180910390fd5b5050565b600060018281548110610a9c57610a9b610f60565b5b9060005260206000200160009054906101000a900473ffffffffffffffffffffffffffffffffffffffff169050919050565b600080610ada83610b0a565b90506000670de0b6b3a76400008583610af3919061107b565b610afd91906110ec565b9050809250505092915050565b6000808273ffffffffffffffffffffffffffffffffffffffff1663feaf968c6040518163ffffffff1660e01b815260040160a060405180830381865afa158015610b58573d6000803e3d6000fd5b505050506040513d601f19601f82011682018060405250810190610b7c91906111aa565b5050509150506402540be40081610b939190611225565b915050919050565b828054828255906000526020600020908101928215610c14579160200282015b82811115610c135782518260006101000a81548173ffffffffffffffffffffffffffffffffffffffff021916908373ffffffffffffffffffffffffffffffffffffffff16021790555091602001919060010190610bbb565b5b509050610c219190610c25565b5090565b5b80821115610c3e576000816000905550600101610c26565b5090565b600073ffffffffffffffffffffffffffffffffffffffff82169050919050565b6000819050919050565b6000610c87610c82610c7d84610c42565b610c62565b610c42565b9050919050565b6000610c9982610c6c565b9050919050565b6000610cab82610c8e565b9050919050565b610cbb81610ca0565b82525050565b6000602082019050610cd66000830184610cb2565b92915050565b600080fd5b6000610cec82610c42565b9050919050565b610cfc81610ce1565b8114610d0757600080fd5b50565b600081359050610d1981610cf3565b92915050565b600060208284031215610d3557610d34610cdc565b5b6000610d4384828501610d0a565b91505092915050565b6000819050919050565b610d5f81610d4c565b82525050565b6000602082019050610d7a6000830184610d56565b92915050565b610d8981610d4c565b8114610d9457600080fd5b50565b600081359050610da681610d80565b92915050565b600060208284031215610dc257610dc1610cdc565b5b6000610dd084828501610d97565b91505092915050565b610de281610ce1565b82525050565b6000602082019050610dfd6000830184610dd9565b92915050565b600081519050919050565b600082825260208201905092915050565b6000819050602082019050919050565b610e3881610ce1565b82525050565b6000610e4a8383610e2f565b60208301905092915050565b6000602082019050919050565b6000610e6e82610e03565b610e788185610e0e565b9350610e8383610e1f565b8060005b83811015610eb4578151610e9b8882610e3e565b9750610ea683610e56565b925050600181019050610e87565b5085935050505092915050565b60006020820190508181036000830152610edb8184610e63565b905092915050565b600082825260208201905092915050565b7f596f75204e65656420746f207370656e64206d6f726520455448210000000000600082015250565b6000610f2a601b83610ee3565b9150610f3582610ef4565b602082019050919050565b60006020820190508181036000830152610f5981610f1d565b9050919050565b7f4e487b7100000000000000000000000000000000000000000000000000000000600052603260045260246000fd5b7f4e487b7100000000000000000000000000000000000000000000000000000000600052601160045260246000fd5b6000610fc982610d4c565b91507fffffffffffffffffffffffffffffffffffffffffffffffffffffffffffffffff8203610ffb57610ffa610f8f565b5b600182019050919050565b7f4e487b7100000000000000000000000000000000000000000000000000000000600052604160045260246000fd5b600081905092915050565b50565b6000611050600083611035565b915061105b82611040565b600082019050919050565b600061107182611043565b9150819050919050565b600061108682610d4c565b915061109183610d4c565b925082820261109f81610d4c565b915082820484148315176110b6576110b5610f8f565b5b5092915050565b7f4e487b7100000000000000000000000000000000000000000000000000000000600052601260045260246000fd5b60006110f782610d4c565b915061110283610d4c565b925082611112576111116110bd565b5b828204905092915050565b600069ffffffffffffffffffff82169050919050565b61113c8161111d565b811461114757600080fd5b50565b60008151905061115981611133565b92915050565b6000819050919050565b6111728161115f565b811461117d57600080fd5b50565b60008151905061118f81611169565b92915050565b6000815190506111a481610d80565b92915050565b600080600080600060a086880312156111c6576111c5610cdc565b5b60006111d48882890161114a565b95505060206111e588828901611180565b94505060406111f688828901611195565b935050606061120788828901611195565b92505060806112188882890161114a565b9150509295509295909350565b60006112308261115f565b915061123b8361115f565b92508282026112498161115f565b91507f8000000000000000000000000000000000000000000000000000000000000000841460008412161561128157611280610f8f565b5b828205841483151761129657611295610f8f565b5b509291505056fea2646970667358221220494c7d03169192171311d8c50f674b4057339b69998fc5847ace77579c6d507264736f6c63430008120033",
  "devdoc": {
    "author": "Amir Codder",
    "details": "This implements price feeds as our library",
    "kind": "dev",
    "methods": {
      "fund()": {
        "details": "this impelemnts price feeds as our library"
      }
    },
    "title": "A contract for crowd funding",
    "version": 1
  },
  "userdoc": {
    "kind": "user",
    "methods": {
      "fund()": {
        "notice": "This function fund this contract"
      }
    },
    "notice": "This contract is to demo a sample funding contract",
    "version": 1
  },
  "storageLayout": {
    "storage": [
      {
        "astId": 62,
        "contract": "contracts/FundMe.sol:FundMe",
        "label": "s_addressToAmountFunded",
        "offset": 0,
        "slot": "0",
        "type": "t_mapping(t_address,t_uint256)"
      },
      {
        "astId": 65,
        "contract": "contracts/FundMe.sol:FundMe",
        "label": "s_funders",
        "offset": 0,
        "slot": "1",
        "type": "t_array(t_address)dyn_storage"
      },
      {
        "astId": 75,
        "contract": "contracts/FundMe.sol:FundMe",
        "label": "s_priceFeed",
        "offset": 0,
        "slot": "2",
        "type": "t_contract(AggregatorV3Interface)45"
      }
    ],
    "types": {
      "t_address": {
        "encoding": "inplace",
        "label": "address",
        "numberOfBytes": "20"
      },
      "t_array(t_address)dyn_storage": {
        "base": "t_address",
        "encoding": "dynamic_array",
        "label": "address[]",
        "numberOfBytes": "32"
      },
      "t_contract(AggregatorV3Interface)45": {
        "encoding": "inplace",
        "label": "contract AggregatorV3Interface",
        "numberOfBytes": "20"
      },
      "t_mapping(t_address,t_uint256)": {
        "encoding": "mapping",
        "key": "t_address",
        "label": "mapping(address => uint256)",
        "numberOfBytes": "32",
        "value": "t_uint256"
      },
      "t_uint256": {
        "encoding": "inplace",
        "label": "uint256",
        "numberOfBytes": "32"
      }
    }
  }
}