{
  "address": "0xd07724b5C5BE1E3BE8112EAdC88bbA7043516c71",
  "abi": [
    {
      "inputs": [
        {
          "internalType": "address",
          "name": "priceFeedAddress",
          "type": "address"
        }
      ],
      "stateMutability": "nonpayable",
      "type": "constructor"
    },
    {
      "inputs": [],
      "name": "NotOwner",
      "type": "error"
    },
    {
      "stateMutability": "payable",
      "type": "fallback"
    },
    {
      "inputs": [],
      "name": "MINIMUM_USD",
      "outputs": [
        {
          "internalType": "uint256",
          "name": "",
          "type": "uint256"
        }
      ],
      "stateMutability": "view",
      "type": "function"
    },
    {
      "inputs": [
        {
          "internalType": "address",
          "name": "",
          "type": "address"
        }
      ],
      "name": "addressToAmountFunded",
      "outputs": [
        {
          "internalType": "uint256",
          "name": "",
          "type": "uint256"
        }
      ],
      "stateMutability": "view",
      "type": "function"
    },
    {
      "inputs": [],
      "name": "fund",
      "outputs": [],
      "stateMutability": "payable",
      "type": "function"
    },
    {
      "inputs": [
        {
          "internalType": "uint256",
          "name": "",
          "type": "uint256"
        }
      ],
      "name": "funders",
      "outputs": [
        {
          "internalType": "address",
          "name": "",
          "type": "address"
        }
      ],
      "stateMutability": "view",
      "type": "function"
    },
    {
      "inputs": [],
      "name": "i_owner",
      "outputs": [
        {
          "internalType": "address",
          "name": "",
          "type": "address"
        }
      ],
      "stateMutability": "view",
      "type": "function"
    },
    {
      "inputs": [],
      "name": "priceFeed",
      "outputs": [
        {
          "internalType": "contract AggregatorV3Interface",
          "name": "",
          "type": "address"
        }
      ],
      "stateMutability": "view",
      "type": "function"
    },
    {
      "inputs": [],
      "name": "withdraw",
      "outputs": [],
      "stateMutability": "nonpayable",
      "type": "function"
    },
    {
      "stateMutability": "payable",
      "type": "receive"
    }
  ],
  "transactionHash": "0x6058129b50b235d9ad22b2362cf9c31623928a5ef83f4b316c9b8aabe271919f",
  "args": [
    "0x694AA1769357215DE4FAC081bf1f309aDC325306"
  ],
  "numDeployments": 1,
  "solcInputHash": "2eb448889eb7f73e3626bd9892c32c2f",
  "bytecode": "0x60a060405234801561001057600080fd5b50604051610eaf380380610eaf83398181016040528101906100329190610110565b3373ffffffffffffffffffffffffffffffffffffffff1660808173ffffffffffffffffffffffffffffffffffffffff168152505080600260006101000a81548173ffffffffffffffffffffffffffffffffffffffff021916908373ffffffffffffffffffffffffffffffffffffffff1602179055505061013d565b600080fd5b600073ffffffffffffffffffffffffffffffffffffffff82169050919050565b60006100dd826100b2565b9050919050565b6100ed816100d2565b81146100f857600080fd5b50565b60008151905061010a816100e4565b92915050565b600060208284031215610126576101256100ad565b5b6000610134848285016100fb565b91505092915050565b608051610d5061015f600039600081816102d3015261055e0152610d506000f3fe6080604052600436106100745760003560e01c8063741bef1a1161004e578063741bef1a1461010c578063b60d428814610137578063dba6335f14610141578063dc0d3dff1461016c57610083565b80633ccfd60b1461008d5780633e47d6f3146100a45780636b69a592146100e157610083565b36610083576100816101a9565b005b61008b6101a9565b005b34801561009957600080fd5b506100a26102d1565b005b3480156100b057600080fd5b506100cb60048036038101906100c69190610796565b610511565b6040516100d891906107dc565b60405180910390f35b3480156100ed57600080fd5b506100f6610529565b60405161010391906107dc565b60405180910390f35b34801561011857600080fd5b50610121610536565b60405161012e9190610856565b60405180910390f35b61013f6101a9565b005b34801561014d57600080fd5b5061015661055c565b6040516101639190610880565b60405180910390f35b34801561017857600080fd5b50610193600480360381019061018e91906108c7565b610580565b6040516101a09190610880565b60405180910390f35b6802b5e3af16b18800006101e8600260009054906101000a900473ffffffffffffffffffffffffffffffffffffffff16346105bf90919063ffffffff16565b1015610229576040517f08c379a000000000000000000000000000000000000000000000000000000000815260040161022090610951565b60405180910390fd5b346000803373ffffffffffffffffffffffffffffffffffffffff1673ffffffffffffffffffffffffffffffffffffffff168152602001908152602001600020819055506001339080600181540180825580915050600190039060005260206000200160009091909190916101000a81548173ffffffffffffffffffffffffffffffffffffffff021916908373ffffffffffffffffffffffffffffffffffffffff160217905550565b7f000000000000000000000000000000000000000000000000000000000000000073ffffffffffffffffffffffffffffffffffffffff163373ffffffffffffffffffffffffffffffffffffffff1614610356576040517f30cd747100000000000000000000000000000000000000000000000000000000815260040160405180910390fd5b60005b6001805490508110156104015760006001828154811061037c5761037b610971565b5b9060005260206000200160009054906101000a900473ffffffffffffffffffffffffffffffffffffffff16905060008060008373ffffffffffffffffffffffffffffffffffffffff1673ffffffffffffffffffffffffffffffffffffffff168152602001908152602001600020819055505080806103f9906109cf565b915050610359565b50600067ffffffffffffffff81111561041d5761041c610a17565b5b60405190808252806020026020018201604052801561044b5781602001602082028036833780820191505090505b506001908051906020019061046192919061068c565b5060003373ffffffffffffffffffffffffffffffffffffffff164760405161048890610a77565b60006040518083038185875af1925050503d80600081146104c5576040519150601f19603f3d011682016040523d82523d6000602084013e6104ca565b606091505b505090508061050e576040517f08c379a000000000000000000000000000000000000000000000000000000000815260040161050590610ad8565b60405180910390fd5b50565b60006020528060005260406000206000915090505481565b6802b5e3af16b188000081565b600260009054906101000a900473ffffffffffffffffffffffffffffffffffffffff1681565b7f000000000000000000000000000000000000000000000000000000000000000081565b6001818154811061059057600080fd5b906000526020600020016000915054906101000a900473ffffffffffffffffffffffffffffffffffffffff1681565b6000806105cb836105fb565b90506000670de0b6b3a764000085836105e49190610af8565b6105ee9190610b69565b9050809250505092915050565b6000808273ffffffffffffffffffffffffffffffffffffffff1663feaf968c6040518163ffffffff1660e01b815260040160a060405180830381865afa158015610649573d6000803e3d6000fd5b505050506040513d601f19601f8201168201806040525081019061066d9190610c27565b5050509150506402540be400816106849190610ca2565b915050919050565b828054828255906000526020600020908101928215610705579160200282015b828111156107045782518260006101000a81548173ffffffffffffffffffffffffffffffffffffffff021916908373ffffffffffffffffffffffffffffffffffffffff160217905550916020019190600101906106ac565b5b5090506107129190610716565b5090565b5b8082111561072f576000816000905550600101610717565b5090565b600080fd5b600073ffffffffffffffffffffffffffffffffffffffff82169050919050565b600061076382610738565b9050919050565b61077381610758565b811461077e57600080fd5b50565b6000813590506107908161076a565b92915050565b6000602082840312156107ac576107ab610733565b5b60006107ba84828501610781565b91505092915050565b6000819050919050565b6107d6816107c3565b82525050565b60006020820190506107f160008301846107cd565b92915050565b6000819050919050565b600061081c61081761081284610738565b6107f7565b610738565b9050919050565b600061082e82610801565b9050919050565b600061084082610823565b9050919050565b61085081610835565b82525050565b600060208201905061086b6000830184610847565b92915050565b61087a81610758565b82525050565b60006020820190506108956000830184610871565b92915050565b6108a4816107c3565b81146108af57600080fd5b50565b6000813590506108c18161089b565b92915050565b6000602082840312156108dd576108dc610733565b5b60006108eb848285016108b2565b91505092915050565b600082825260208201905092915050565b7f596f75204e65656420746f207370656e64206d6f726520455448210000000000600082015250565b600061093b601b836108f4565b915061094682610905565b602082019050919050565b6000602082019050818103600083015261096a8161092e565b9050919050565b7f4e487b7100000000000000000000000000000000000000000000000000000000600052603260045260246000fd5b7f4e487b7100000000000000000000000000000000000000000000000000000000600052601160045260246000fd5b60006109da826107c3565b91507fffffffffffffffffffffffffffffffffffffffffffffffffffffffffffffffff8203610a0c57610a0b6109a0565b5b600182019050919050565b7f4e487b7100000000000000000000000000000000000000000000000000000000600052604160045260246000fd5b600081905092915050565b50565b6000610a61600083610a46565b9150610a6c82610a51565b600082019050919050565b6000610a8282610a54565b9150819050919050565b7f43616c6c204661696c6564210000000000000000000000000000000000000000600082015250565b6000610ac2600c836108f4565b9150610acd82610a8c565b602082019050919050565b60006020820190508181036000830152610af181610ab5565b9050919050565b6000610b03826107c3565b9150610b0e836107c3565b9250828202610b1c816107c3565b91508282048414831517610b3357610b326109a0565b5b5092915050565b7f4e487b7100000000000000000000000000000000000000000000000000000000600052601260045260246000fd5b6000610b74826107c3565b9150610b7f836107c3565b925082610b8f57610b8e610b3a565b5b828204905092915050565b600069ffffffffffffffffffff82169050919050565b610bb981610b9a565b8114610bc457600080fd5b50565b600081519050610bd681610bb0565b92915050565b6000819050919050565b610bef81610bdc565b8114610bfa57600080fd5b50565b600081519050610c0c81610be6565b92915050565b600081519050610c218161089b565b92915050565b600080600080600060a08688031215610c4357610c42610733565b5b6000610c5188828901610bc7565b9550506020610c6288828901610bfd565b9450506040610c7388828901610c12565b9350506060610c8488828901610c12565b9250506080610c9588828901610bc7565b9150509295509295909350565b6000610cad82610bdc565b9150610cb883610bdc565b9250828202610cc681610bdc565b91507f80000000000000000000000000000000000000000000000000000000000000008414600084121615610cfe57610cfd6109a0565b5b8282058414831517610d1357610d126109a0565b5b509291505056fea264697066735822122078a54b40add7d79d87573903ec191086ae15f1e357bc0b179ae0d3d50cab2e5964736f6c63430008120033",
  "devdoc": {
    "kind": "dev",
    "methods": {},
    "version": 1
  },
  "userdoc": {
    "kind": "user",
    "methods": {},
    "version": 1
  },
  "storageLayout": {
    "storage": [
      {
        "astId": 58,
        "contract": "contracts/FundMe.sol:FundMe",
        "label": "addressToAmountFunded",
        "offset": 0,
        "slot": "0",
        "type": "t_mapping(t_address,t_uint256)"
      },
      {
        "astId": 61,
        "contract": "contracts/FundMe.sol:FundMe",
        "label": "funders",
        "offset": 0,
        "slot": "1",
        "type": "t_array(t_address)dyn_storage"
      },
      {
        "astId": 71,
        "contract": "contracts/FundMe.sol:FundMe",
        "label": "priceFeed",
        "offset": 0,
        "slot": "2",
        "type": "t_contract(AggregatorV3Interface)45"
      }
    ],
    "types": {
      "t_address": {
        "encoding": "inplace",
        "label": "address",
        "numberOfBytes": "20"
      },
      "t_array(t_address)dyn_storage": {
        "base": "t_address",
        "encoding": "dynamic_array",
        "label": "address[]",
        "numberOfBytes": "32"
      },
      "t_contract(AggregatorV3Interface)45": {
        "encoding": "inplace",
        "label": "contract AggregatorV3Interface",
        "numberOfBytes": "20"
      },
      "t_mapping(t_address,t_uint256)": {
        "encoding": "mapping",
        "key": "t_address",
        "label": "mapping(address => uint256)",
        "numberOfBytes": "32",
        "value": "t_uint256"
      },
      "t_uint256": {
        "encoding": "inplace",
        "label": "uint256",
        "numberOfBytes": "32"
      }
    }
  }
}